{
  "contractName": "Lottery",
  "abi": [
    {
      "inputs": [],
      "stateMutability": "nonpayable",
      "type": "constructor"
    },
    {
      "inputs": [
        {
          "internalType": "uint256",
          "name": "",
          "type": "uint256"
        }
      ],
      "name": "players",
      "outputs": [
        {
          "internalType": "address payable",
          "name": "",
          "type": "address"
        }
      ],
      "stateMutability": "view",
      "type": "function"
    },
    {
      "stateMutability": "payable",
      "type": "receive"
    },
    {
      "inputs": [],
      "name": "getBalance",
      "outputs": [
        {
          "internalType": "uint256",
          "name": "",
          "type": "uint256"
        }
      ],
      "stateMutability": "view",
      "type": "function"
    },
    {
      "inputs": [],
      "name": "getRandom",
      "outputs": [
        {
          "internalType": "uint256",
          "name": "",
          "type": "uint256"
        }
      ],
      "stateMutability": "view",
      "type": "function"
    },
    {
      "inputs": [],
      "name": "selectWinner",
      "outputs": [
        {
          "internalType": "address",
          "name": "",
          "type": "address"
        }
      ],
      "stateMutability": "payable",
      "type": "function"
    }
  ],
  "bytecode": "0x608060405234801561001057600080fd5b50336000806101000a81548173ffffffffffffffffffffffffffffffffffffffff021916908373ffffffffffffffffffffffffffffffffffffffff160217905550610990806100606000396000f3fe6080604052600436106100435760003560e01c806312065fe0146100fc57806333a99e0414610127578063aacc5a1714610145578063f71d96cb14610170576100f7565b366100f757670de0b6b3a7640000341015610093576040517f08c379a000000000000000000000000000000000000000000000000000000000815260040161008a906105b0565b60405180910390fd5b6001339080600181540180825580915050600190039060005260206000200160009091909190916101000a81548173ffffffffffffffffffffffffffffffffffffffff021916908373ffffffffffffffffffffffffffffffffffffffff1602179055005b600080fd5b34801561010857600080fd5b506101116101ad565b60405161011e91906105e9565b60405180910390f35b61012f610244565b60405161013c9190610645565b60405180910390f35b34801561015157600080fd5b5061015a610433565b60405161016791906105e9565b60405180910390f35b34801561017c57600080fd5b5061019760048036038101906101929190610691565b61046d565b6040516101a491906106df565b60405180910390f35b60008060009054906101000a900473ffffffffffffffffffffffffffffffffffffffff1673ffffffffffffffffffffffffffffffffffffffff163373ffffffffffffffffffffffffffffffffffffffff161461023e576040517f08c379a000000000000000000000000000000000000000000000000000000000815260040161023590610746565b60405180910390fd5b47905090565b60008060009054906101000a900473ffffffffffffffffffffffffffffffffffffffff1673ffffffffffffffffffffffffffffffffffffffff163373ffffffffffffffffffffffffffffffffffffffff16146102d5576040517f08c379a00000000000000000000000000000000000000000000000000000000081526004016102cc906107b2565b60405180910390fd5b6003600180549050101561031e576040517f08c379a00000000000000000000000000000000000000000000000000000000081526004016103159061081e565b60405180910390fd5b600060018054905061032e610433565b610338919061086d565b90506000600182815481106103505761034f61089e565b5b9060005260206000200160009054906101000a900473ffffffffffffffffffffffffffffffffffffffff1690508073ffffffffffffffffffffffffffffffffffffffff166108fc61039f6101ad565b9081150290604051600060405180830381858888f193505050501580156103ca573d6000803e3d6000fd5b50600067ffffffffffffffff8111156103e6576103e56108cd565b5b6040519080825280602002602001820160405280156104145781602001602082028036833780820191505090505b506001908051906020019061042a9291906104ac565b50809250505090565b6000444260018054905060405160200161044f9392919061091d565b6040516020818303038152906040528051906020012060001c905090565b6001818154811061047d57600080fd5b906000526020600020016000915054906101000a900473ffffffffffffffffffffffffffffffffffffffff1681565b828054828255906000526020600020908101928215610525579160200282015b828111156105245782518260006101000a81548173ffffffffffffffffffffffffffffffffffffffff021916908373ffffffffffffffffffffffffffffffffffffffff160217905550916020019190600101906104cc565b5b5090506105329190610536565b5090565b5b8082111561054f576000816000905550600101610537565b5090565b600082825260208201905092915050565b7f4d696e696d756d20312d65746865722072657175697265640000000000000000600082015250565b600061059a601883610553565b91506105a582610564565b602082019050919050565b600060208201905081810360008301526105c98161058d565b9050919050565b6000819050919050565b6105e3816105d0565b82525050565b60006020820190506105fe60008301846105da565b92915050565b600073ffffffffffffffffffffffffffffffffffffffff82169050919050565b600061062f82610604565b9050919050565b61063f81610624565b82525050565b600060208201905061065a6000830184610636565b92915050565b600080fd5b61066e816105d0565b811461067957600080fd5b50565b60008135905061068b81610665565b92915050565b6000602082840312156106a7576106a6610660565b5b60006106b58482850161067c565b91505092915050565b60006106c982610604565b9050919050565b6106d9816106be565b82525050565b60006020820190506106f460008301846106d0565b92915050565b7f4e6f7420417574686f7269736564210000000000000000000000000000000000600082015250565b6000610730600f83610553565b915061073b826106fa565b602082019050919050565b6000602082019050818103600083015261075f81610723565b9050919050565b7f4e6f7420417574686f7269736564000000000000000000000000000000000000600082015250565b600061079c600e83610553565b91506107a782610766565b602082019050919050565b600060208201905081810360008301526107cb8161078f565b9050919050565b7f4e6f7420456e6f756768205061727469636970656e7473000000000000000000600082015250565b6000610808601783610553565b9150610813826107d2565b602082019050919050565b60006020820190508181036000830152610837816107fb565b9050919050565b7f4e487b7100000000000000000000000000000000000000000000000000000000600052601260045260246000fd5b6000610878826105d0565b9150610883836105d0565b9250826108935761089261083e565b5b828206905092915050565b7f4e487b7100000000000000000000000000000000000000000000000000000000600052603260045260246000fd5b7f4e487b7100000000000000000000000000000000000000000000000000000000600052604160045260246000fd5b6000819050919050565b610917610912826105d0565b6108fc565b82525050565b60006109298286610906565b6020820191506109398285610906565b6020820191506109498284610906565b60208201915081905094935050505056fea264697066735822122081c9dc08723501c1508e920e8c2da622e72109851c2e81ebdd01703d6c13a95064736f6c634300080e0033",
  "immutableReferences": {},
  "source": "// SPDX-License-Identifier: MIT\n\npragma solidity ^0.8.0;\n\ncontract Lottery {\n    address private manager;\n    address payable[] public players;\n\n    constructor() {\n        manager = msg.sender;\n    }\n\n    receive() external payable {\n        require(msg.value >= 1 ether, \"Minimum 1-ether required\");\n\n        players.push(payable(msg.sender));\n    }\n\n    function getBalance() public view returns (uint256) {\n        require(msg.sender == manager, \"Not Authorised!\");\n        return address(this).balance;\n    }\n\n    function getRandom() public view returns (uint256) {\n        return\n            uint(\n                keccak256(\n                    abi.encodePacked(\n                        block.difficulty,\n                        block.timestamp,\n                        players.length\n                    )\n                )\n            );\n    }\n\n    function selectWinner() public payable returns (address) {\n        require(msg.sender == manager, \"Not Authorised\");\n        require(players.length >= 3, \"Not Enough Participents\");\n\n        uint randomIndex = getRandom() % players.length;\n\n        address payable Winner = players[randomIndex];\n\n        Winner.transfer(getBalance());\n\n        players = new address payable[](0);\n\n        return Winner;\n    }\n}\n",
  "sourcePath": "/home/bhavesh/Documents/GitHub/MySolidityProjects/Lottery-Project/contracts/Lottery.sol",
  "compiler": {
    "name": "solc",
    "version": "0.8.14+commit.80d49f37.Emscripten.clang"
  },
  "schemaVersion": "3.4.7",
  "updatedAt": "2022-06-29T11:55:22.716Z",
  "devdoc": {
    "kind": "dev",
    "methods": {},
    "version": 1
  },
  "userdoc": {
    "kind": "user",
    "methods": {},
    "version": 1
  }
}